:020000040800F2
:10000000F8FF02201901020807190A08F5180A0862
:1000100009190A0815190A0821190A080000000020
:100020000000000000000000000000002D190A0878
:100030002F190A0800000000C5270A08F501002052
:1000400001000208191A0A082B1A0A08311A0A08AC
:10005000418E0A0801000208AD190A08B3190A08FE
:10006000B9190A08BF190A08C5190A08ED460A088D
:10007000FD460A080D470A081D470A082D470A08C9
:100080003D470A084D470A0801000208010002081E
:1000900029670A0831670A0839670A08CB190A086C
:1000A000451A0A084B1A0A085D1A0A08631A0A0850
:1000B000691A0A086F1A0A08751A0A080100020864
:1000C0000100020801000208010002080100020804
:1000D000010002080D030020130300201903002073
:1000E000EF190A081F1A0A0801000208A11A0A08D3
:1000F000A71A0A08BF1A0A08B91A0A085D470A08A7
:1001000001000208010002087D1A0A080100020825
:10011000F5020020FB020020951A0A089B1A0A0823
:100120006D470A087D470A088D470A089D470A0857
:10013000AD470A0801000208251A0A080100020852
:100140003F670A0847670A084F670A080100020864
:10015000BD470A08CD470A08DD470A081F030020EB
:10016000C51A0A08CB1A0A08010002080100020891
:100170003D190A0831190A080100020800000000B0
:10018000010002080100020801030020070300200B
:100190000100020801000208010002080100020833
:1001A00001000208010002080100020802480023C1
:1001B00043643C3000F048B9B4090020054B43F8D3
:1001C0002010054B01221A60044B4FF080525A60F8
:1001D000704700BF181500201C15002000ED00E03E
:1001E00010F4FF7F02BF024B0422C3F8002E7047B9
:1001F00000E100E00D4B10B51C6801341C604FF0AD
:10020000E02304F001021B69094B53F822300BB1C3
:1002100020469847074B1B68A34205D1BDE8104014
:1002200005490020FFF7CABF10BD00BFC80F00205E
:1002300020150020C40F00209D99090838B52B4BCC
:1002400003EB8003D3F88441002C4DD06368196818
:1002500089B28A06E1833AD5608A002833D0A28A1F
:1002600092B20132B2FBF0F500FB1522E08A92B2A5
:10027000904228D01968E1835968A3890B40A17A7C
:10028000B1B11B490968994212D1FFF78FFFA38BC7
:10029000DD0604D56268D36843F01003D360E38BB6
:1002A000A28B1A4220D0206ABDE8384000F0C8B8BE
:1002B000E17AA0690129A18A89B20CBF20F8113026
:1002C0004354A282E3E7DA6822F02002DA60C8062B
:1002D00042BFDA6822F01002DA600A0742BFDA6829
:1002E00022F02002DA60DAE738BD00BFB40900204E
:1002F000580900200420FFF7A1BF0520FFF79EBF8B
:100300000720FFF79BBF0820FFF798BF0120FFF7EA
:1003100095BF0220FFF792BF0320FFF78FBF062093
:10032000FFF78CBF114B70B500220446DA6100F074
:1003300075F80F4D0646EB68DA030CD4EB68DB0763
:1003400044BF0123EB60E86810F4F97007D000F0B7
:100350007FF8012003E0611CEDD00CB9032070BDD3
:1003600000F05CF8801BA042E5D9F7E7CC0F002035
:10037000003C02402DE9F843DFF89C8098F81830E3
:10038000012B05460F4642D001234CF2503088F82D
:100390001830FFF7C7FF0446B8B94FF0FF333B6092
:1003A0002B68012B17D16968287C00F041F84CF2CA
:1003B0005030FFF7B7FF174A136923F4004323F0C7
:1003C00004030446136100F037F8002388F818305E
:1003D0002046BDE8F883AE68DFF83890D5E90223FF
:1003E0001344B342EFD9297C304600F01DF84CF29B
:1003F0005030FFF797FFD9F8103023F0FA03C9F80F
:10040000103010B13E600446DDE70136E6E7022415
:10041000DEE700BF003C0240CC0F0020014B186813
:10042000704700BFC80F00205FF800F05DAB0908FF
:100430005FF800F025AB09085FF800F0A9AB0908E8
:100440005FF800F0759309085FF800F095DF070882
:080450005FF800F0D5A90908CE
:020000040802F0
:10000000FEE700000F49D1F8883043F47003C1F8CF
:1000100088300D4B1A68002042F001021A60986087
:100020001A6822F0847222F480321A60074A5A60F9
:100030001A6822F480221A60D8604FF000638B6047
:10004000704700BF00ED00E000380240103000248F
:1000500030B5002495B010252A4621460AA80494FC
:1000600078F0A2FD284B01941A6C42F080521A6479
:100070001B6C03F080530193019B244B029419687D
:1000800041F4404119601B68059403F44043029316
:100090000122029B4FF48033CDE908234FF4800105
:1000A00002230F22CDE90E3112930723CDE90B4530
:1000B000039208254FF4A87213934FF4A05C4FF4F9
:1000C000805308A8CDE91052CDE906C37CF0A4FA0C
:1000D00010B10F4881F08EF8119B109A3021DB008F
:1000E000B3FBF2F3B3FBF1F201FB1232003A1299C7
:1000F000B3FBF1F118BF012203A882F02DFC08B177
:100100000448E7E715B030BD0038024000700040F9
:1001100008AE0A081AAE0A080446DFF82CD00B49CC
:100120000B4A0C4B03E051F8040B42F8040B9A42C3
:10013000F9D300200849094A01E041F8040B914233
:10014000FBD3204681F0AAB9F8FF022004450F082E
:100150005804002064090020640900208C2D002030
:1001600040F8044B40F8045B40F8046B40F8047B13
:1001700040F8048B40F8049B40F804AB40F804BB03
:1001800040F804CB40F804DB6846704740437047B2
:1001900040687047806870474068B0FA80F0400956
:1001A0007047D0E90120131A584258417047002384
:1001B000436070470B6803604B6843608B688360E3
:1001C000CB68C360704703780BB901230370704795
:1001D000007AA0F1FF0358425841704770B5047A85
:1001E0000368FF2C0ED003EB8405002084420ED858
:1001F00000200BE0884203F1080303D16368136019
:10020000012003E018781C460028F3D170BD15F8D2
:10021000016B8E4202D153F82030F0E70130E5E760
:1002200080081F2828BF1F20704780B2704700F445
:100230007F00704700207047002070470120704702
:10024000704701207047000006490022D3B2CB5C02
:100250000BB918467047834202F10102F6D1012022
:10026000704700BF2EAE0A08092070470320704770
:100270000020704700487047B0180B080C3004226B
:1002800001230860C1E901230020704703681BB106
:100290009B690BB100225A6070470430042201238D
:1002A0000860C1E9012300207047022803D0052817
:1002B00008D0002070474868536898420CBF1E2041
:1002C0000E20704748685368984214BF1E200E20C5
:1002D0007047000009490A4A00230B600949C2F827
:1002E000F4310B60C2F8F8310749C2F89430C2F813
:1002F0009030064A0B601360704700BF74090020FD
:10030000B4090020700900206C0900206809002051
:10031000022803D0052808D0002070474868536899
:1003200098420CBF1E200E207047486853689842C0
:1003300014BF1E200E20704708B59047062008BD48
:1003400008B5904700280CBF0E201E2008BD08B538
:100350009047062008BD10B5086814465EF064FC9E
:10036000A047062010BD10B5086814465EF05CFC7E
:10037000C0B2A04700280CBF0E201E2010BD10B533
:10038000086814465EF050FCC0B2A04700280CBFBD
:100390000E201E2010BD10B5086814465EF044FC07
:1003A000A04700280CBF0E201E2010BD70B50868A5
:1003B0000C4615465EF038FC064660685EF034FC7C
:1003C000C1B2F0B2A84700280CBF0E201E2070BD9D
:1003D00070B508680C4615465EF026FC0646606857
:1003E0005EF022FC01463046A847062070BD08B5E5
:1003F000C37C00EB83000022006943F2B271043039
:100400005EF022F920B1BDE8084040685EF00CBC07
:1004100008BD012810B50C6802D9486806280DD11E
:100420002068FFF7E4FF014658B1626801205FF0E1
:1004300027FA037963F07F03037110BD5EF0F4FBCC
:10044000F1E70620F9E700001FB50446002832D086
:10045000062842D05EF024FB838899052BD4012224
:1004600001A920465EF014FE78B9A20703D12268E4
:100470001B4B9A421FD020465EF01EFB19490246D4
:10048000194860F0FDFC4FF0D7FE04F00703022B83
:1004900010D0A30712D123681A7B2AB103EB820282
:1004A0001169124A914205D0114A934202D0114A71
:1004B000934203D1019C204604B010BD029B042B43
:1004C00002D1039B012B05D020465EF0F5FA0A49C4
:1004D0000246D5E7019B1C68EDE70024EBE700BF6F
:1004E000C87E0E0839AE0A081C800E08755108082F
:1004F000047C0E08C47B0E0847AE0A0810B50446FB
:100500000846FFF7A1FF6060204610BD10B50868DF
:100510001446FFF799FFA047062010BDFFF7F6BF6E
:10052000FFF7F4BFFFF7F2BFFFF7F0BFFFF7EEBF33
:10053000FFF7ECBFFFF7EABFFFF7E8BF2DE9F04F89
:10054000086889B00C469146FFF77EFF0690606808
:100550005EF06AFB8346A0685EF066FB8246E06858
:100560005EF062FB079020695EF05EFB0546606905
:100570005EF05AFB0646A0695EF056FB0746E0694E
:100580005EF052FB8046206A5EF04EFB079B5FFAEE
:1005900088F1C0B2FFB2F6B2ADB2049003910698F2
:1005A0000297019600959BB21FFA8AF21FFA8BF10F
:1005B000C847062009B0BDE8F08F70B548680C4602
:1005C0001546FFF741FF06462068FFF73DFF31461D
:1005D000A84700280CBF0E201E2070BDF8B5886803
:1005E0000C461546FFF730FF07466068FFF72CFF03
:1005F00006462068FFF728FF3A463146A8470620FE
:10060000F8BD70B548680C461546FFF71DFF064655
:100610002068FFF719FF3146A847062070BDFFF795
:10062000F0BF10B508681446FFF70EFFA04700287A
:100630000CBF0E201E2010BDFFF7F3BF70B5086879
:100640000C461546FFF700FF06466068FFF7FCFE04
:1006500001463046A847062070BD70B508680C46B4
:100660001546FFF7F1FE064660685EF0DDFA0146CA
:100670003046A847062070BDFFF7EFBF2DE9F04FC9
:10068000086887B00C461646FFF7DEFE05906068E6
:10069000FFF7DAFE8046A0685EF0C6FA8146E068A1
:1006A0005EF0C2FA824620695EF0BEFA8346606957
:1006B0005EF0BAFA0746A0695EF0B6FA0546E06950
:1006C0005EF0B2FAEDB2C0B20390CDE901750598C3
:1006D000CDF800B053464A464146B047062007B021
:1006E000BDE8F08F2DE9F04F086887B00C4615463D
:1006F000FFF7AAFE05906068FFF7A6FE0746A06810
:100700005EF092FA8046E0685EF08EFA81462069DB
:100710005EF08AFA824660695EF086FA8346A069D6
:100720005EF082FA0646E0695EF07EFACDE900AB43
:10073000CDE902604B46059842463946A847062057
:1007400007B0BDE8F08F70B508680C461546FFF796
:100750007BFE064660685EF067FA01463046A847B1
:1007600000280CBF0E201E2070BD70B508680C4616
:100770001546FFF769FE06466068FFF765FE01460D
:100780003046A84700280CBF0E201E2070BD70B553
:1007900008680C461546FFF757FE06466068FFF7E7
:1007A00053FE01463046A847062070BD10B50868C4
:1007B0001446FFF749FEA047062010BDFFF7F6BF1D
:1007C000F8B508680C461546FFF73EFE0646606819
:1007D0005EF02AFA0746A0685EF026FAF9B20246F1
:1007E0003046A8470620F8BD70B508680C46154687
:1007F000FFF72AFE064660685EF016FA01463046AC
:10080000A847062070BDFFF7EFBF38B5054608467C
:10081000FFF71AFE044628B108204FF035FDC0E965
:10082000005438BD0620FCE770B50646102014467B
:100830000D464FF029FD034A8560C0E90026047388
:1008400070BD00BF78C70C0800220121FFF7ECBF84
:1008500001220421FFF7E8BF70B505460C200E46C3
:100860004FF012FD04463046FFF7EEFD002398429C
:10087000C4E90050A36014BF2046062070BD08B52F
:100880009047BDE8084061F00DBD70B508680C46A2
:1008900015465EF0C9F9064660685EF0C5F9C1B25A
:1008A0003046A847BDE8704061F0FCBC08B59047F1
:1008B000BDE8084061F0F6BC10B5086814465EF06B
:1008C000B3F9C0B2A047BDE8104061F0EBBCFFF740
:1008D000F3BFF8B508680C4615465EF0A5F9064664
:1008E00060685EF0A1F90746A0685EF09DF9B9B2B4
:1008F000C2B2B0B2A847BDE8F84061F0D3BC10B5B1
:10090000086814465EF090F9C0B2A047BDE81040F8
:1009100061F0C8BCF8B508680C4615465EF084F96D
:10092000064660685EF080F90746A0685EF07CF9D4
:10093000394602463046A847BDE8F84061F0B2BCEF
:10094000F8B508680C4615465EF06EF90646606814
:100950005EF06AF90746A0685EF066F9394602461D
:100960003046A847BDE8F84061F09CBC08B5904708
:10097000BDE8084061F096BC70B508680C461546A5
:100980005EF052F9064660685EF04EF90146304668
:10099000A847BDE8704061F085BC70B508680C469A
:1009A00015465EF041F9064660685EF03DF9014685
:1009B0003046A847BDE8704061F074BC10B50868C7
:1009C00014465EF031F9C0B2A047BDE8104061F0B6
:1009D00069BC2DE9F04108680C4615465EF024F923
:1009E000064660685EF020F90746A0685EF01CF9D4
:1009F0008046E0685EF018F95FFA88F2C3B23946C3
:100A00003046A847BDE8F04161F04CBC10B508681D
:100A100014465EF009F9A047BDE8104061F042BC01
:100A2000FFF7F4BFFFF7F2BF10B5086814465EF099
:100A3000FBF8A047BDE8104061F034BC70B5086811
:100A40000C461546FFF700FD06466068FFF7FCFC04
:100A500001463046A847BDE8704061F09DBBFFF7F6
:100A6000EDBF2DE9F041C8680C461546FFF7ECFCD8
:100A700080466068FFF7E8FC0646A0685EF0D4F8A0
:100A800007462068FFF7E0FC43463A463146A84750
:100A9000BDE8F04161F080BB2DE9F04108680C46EB
:100AA0001546FFF7D1FC06466068FFF7CDFC074608
:100AB000A0685EF0B9F88046E0685EF0B5F842469E
:100AC000C3B239463046A847BDE8F04161F064BB87
:100AD00070B508680C461546FFF7B6FC0646606818
:100AE000FFF7B2FC01463046A847BDE8704061F010
:100AF00053BBFFF7EDBF10B508681446FFF7A4FC21
:100B0000A047BDE8104061F047BBFFF7F4BF70B5E8
:100B100008680C461546FFF797FC06466068FFF725
:100B200093FC01463046A847BDE8704061F034BBF5
:100B3000FFF7EDBF2DE9F04108680C4615465EF061
:100B400073F8064660685EF06FF80746A0685EF0CE
:100B50006BF88046E0685EF067F842460346394627
:100B60003046A847BDE8F04161F016BB10B50868F3
:100B700014465EF059F8A047BDE8104061F00CBB88
:100B800010B5086814465EF04FF8C0B2A047BDE843
:100B9000104061F001BB70B508680C4615465EF068
:100BA00043F8064660685EF03FF801463046A847C5
:100BB000BDE8704061F0F0BA2DE9F74308680C46D3
:100BC00015465EF031F8064660685EF02DF807467F
:100BD000A0685EF029F88046E0685EF025F881465E
:100BE00020695EF021F84B46009042463946304677
:100BF000A84703B0BDE8F04361F0CEBA10B508686D
:100C000014465EF011F8A047BDE8104061F0C4BA88
:100C10002DE9F74308680C4615465EF005F80646D0
:100C200060685EF001F80746A0685DF0FDFF804651
:100C3000E0685DF0F9FF814620695DF0F5FF4B4605
:100C40000090424639463046A84703B0BDE8F0431D
:100C500061F0A2BA10B5086814465DF0E5FF00B275
:100C6000A047BDE8104061F097BA08B59047BDE8CD
:100C7000084061F091BAF8B508680C461546FFF7D0
:100C8000E3FB06466068FFF7DFFB0746A0685DF000
:100C9000CBFF394602463046A847BDE8F84061F030
:100CA0007BBA08B59047BDE8084061F075BA10B549
:100CB000086814465DF0B8FFA047BDE8104061F039
:100CC0006BBA10B508681446FFF7BEFBA047BDE835
:100CD000104061F061BAFFF7F4BFFFF7F2BF70B5E3
:100CE00008680C461546FFF7AFFB064660685EF0E5
:100CF000E1F801463046A847062070BD2DE9F04FC7
:100D0000086885B00C461546FFF79EFB06466068EE
:100D10005DF08AFF0746A0685DF086FF8046E068C8
:100D20005DF082FF81462069FFF78EFB8246606995
:100D30005DF07AFF8346A0695EF0BCF8CDF800A0B4
:100D4000CDE901B04B46304642463946A847062019
:100D500005B0BDE8F08F10B5086814465EF0AAF83B
:100D6000A047062010BD70B508680C4615465DF01A
:100D70005BFF064660685EF09DF801463046A84776
:100D8000062070BD2DE9F0410D46064617465DF080
:100D900087FEED00044645F00205E17CB9B104EBA5
:100DA000810100220869294604305DF04DFC38B10C
:100DB00042683B4621463046BDE8F0415CF01EB833
:100DC000A37C23B104EB83031C69002CE5D1BDE8AF
:100DD000F08170B516684568144696B940F68416D9
:100DE000B14208D040F6F136B14206D1288861F010
:100DF00059FA206070BD6888F9E7BDE87040FFF7D8
:100E0000C1BF50680028F5D040F68412914209D045
:100E100040F6F1329142EDD15DF006FF28800023CB
:100E20002360E7E75DF000FF6880F8E770B51668BB
:100E300045681446BEB940F64376B1420BD0B1F5D1
:100E4000955F0AD040F6BE36B14208D1288861F0DD
:100E500029FA206070BDA878F9E7E878F7E7BDE8DF
:100E60007040FFF78FBF50680028F3D040F6437200
:100E700091420CD0B1F5955F0DD040F6BE32914253
:100E8000E8D15DF0D1FE288000232360E2E75DF029
:100E9000CBFEA870F8E75DF0C7FEE870F4E738B560
:100EA00013684568144643BB40F62E43994220D050
:100EB0000CD840F6B603994212D040F6E3039942AB
:100EC00015D02246BDE83840FFF75CBF41F25C23F5
:100ED00099420AD041F26F239942F2D1A86809E001
:100EE000288861F0DFF9206038BDA878F9E7E87854
:100EF000F7E7686861F050F9F5E750680028F3D02B
:100F000040F62E43994222D00BD840F6B6039942C0
:100F100013D040F6E3039942E6D15DF085FEE87018
:100F20000EE041F25C2399420DD041F26F239942C9
:100F3000DAD15DF079FEA86002E05DF075FE2880F0
:100F400000232360D0E75DF06FFEA870F8E75DF046
:100F50006BFE6860F4E770B5166845681446A6B97C
:100F600040F68346B14208D040F68C46B14208D1E3
:100F7000287861F011F9206070BD686861F092F91D
:100F8000F9E7BDE87040FFF7FDBE50680028F3D0D8
:100F900040F68342914209D040F68C429142EBD117
:100FA0005DF042FE287000232360E5E75DF03CFE23
:100FB0006860F8E770B5166844681546E6B940F60B
:100FC000AF36B1420DD0B1F56E6F0ED040F2C6769D
:100FD000B1420DD1207800F01F0061F063F9286064
:100FE00070BD2088C0F34510F7E76078C008F4E7CB
:100FF000BDE87040FFF7C6BE50680028F0D040F64C
:10100000AF3291420FD0B1F56E6F13D040F2C6727D
:101010009142E5D15DF008FE237860F3040323706C
:1010200000232B60DCE75DF0FFFD238860F34A13AB
:101030002380F5E75DF0F8FD637860F3C703637024
:10104000EEE7000038B5136844681546002B36D12A
:1010500040F6B753994227D00DD86FF41C628B1815
:10106000082B27D8082B25D8DFE803F022242424D6
:101070001A241624180041F29A23994212D041F200
:101080009C23994212D041F26823994212D12068E0
:1010900061F008F9286038BD6068F9E7A068F7E7F3
:1010A000E068F5E72069F3E76069F1E7207EEFE7A4
:1010B000607EEDE72A46BDE83840FFF763BE506822
:1010C0000028E8D040F6B75399423FD01CD86FF4BF
:1010D0001C6319440829DED80829DCD801A353F879
:1010E00021F000BF5D110208971002089710020856
:1010F000971002083D110208971002082D110208EE
:10110000971002083511020841F29A23994219D02A
:1011100041F29C2399421DD041F268239942BAD1F1
:101120005DF082FD206000232B60B4E75DF07CFD64
:101130006060F8E75DF078FDA060F4E75DF074FDB5
:10114000E060F0E75DF070FD2061ECE75DF06CFDC4
:101150006061E8E75DF068FD2076E4E75DF064FD3E
:101160006076E0E770B516684568144656B9A2295E
:1011700004D1286861F010F8206070BDBDE87040AF
:10118000FFF700BE50680028F7D0A229F5D15DF026
:101190004BFD002328602360EFE770B516684568B3
:1011A0001446E6B940F6F256B14210D041F2E126BB
:1011B000B14207D040F69606B1420DD0BDE870406E
:1011C000FFF7E0BD288861F06DF8206070BD95F9EB
:1011D000020060F0E1FFF8E795F90300F9E75068D5
:1011E0000028F3D040F6F252914211D041F2E122B0
:1011F000914207D040F696029142E7D15DF014FD8E
:10120000E87002E05DF010FD288000232360DDE738
:101210005DF00AFDA870F8E770B5166845681446D9
:1012200066B941F26D16B14204D1286861F03AF80E
:10123000206070BDBDE87040FFF7A4BD5068002875
:10124000F7D041F26D129142F3D15DF0EDFC002335
:1012500028602360EDE738B513684568144633BB52
:10126000B1F5696F1DD00CD840F6A71399421CD078
:1012700040F61963994216D02246BDE83840FFF780
:1012800081BDB1F58E5F05D041F299239942F3D12A
:10129000EB7800E02B78002B0CBF0E231E2323607D
:1012A00013E06B78F7E7AB78F5E72B79F3E7506855
:1012B00058B1B1F5696F19D008D840F6A713994213
:1012C0001CD040F61963994214D038BDB1F58E5F39
:1012D00007D041F299239942F7D15DF0EBFDE87018
:1012E00002E05DF0E7FD28700023D8E75DF0E2FD45
:1012F0006870F9E75DF0DEFDA870F5E75DF0DAFDF6
:101300002871F1E770B516684568144696B941F240
:10131000D126B14207D041F2D926B14208D0BDE86A
:101320007040FFF72FBD286860F036FF206070BD69
:101330006868F9E750680028F9D041F2D12291425B
:1013400007D041F2D9229142F1D15DF06DFC686085
:1013500002E05DF069FC286000232360E7E738B510
:101360001368456814460BBB40F6AF33994219D059
:10137000B1F53B6F0CD240F24D73994214D040F25C
:10138000C673994209D02246BDE83840FFF7FABC3F
:10139000B1F56E6FF7D1A87800E0287860F082FF91
:1013A000206038BD6878F9E7E878F7E750680028EA
:1013B000F7D040F6AF33994217D0B1F53B6F0DD25D
:1013C00040F24D73994214D040F2C6739942E8D16D
:1013D0005DF02AFC287000232360E2E7B1F56E6F10
:1013E000DFD15DF021FCA870F5E75DF01DFC6870B1
:1013F000F1E75DF019FCE870EDE770B51668456837
:101400001446C6B940F6B446B1420BD041F2D926D3
:10141000B1420CD040F66D06B1420AD0BDE8704032
:10142000FFF7B0BC286860F0B7FE206070BD686848
:10143000F9E7A868F7E750680028F7D040F6B4420B
:1014400091420BD041F2D92291420DD040F66D026B
:101450009142EBD15DF0E8FBA86002E05DF0E4FBB7
:10146000286000232360E1E75DF0DEFB6860F8E7B9
:1014700070B516684568144696B941F2D126B14256
:1014800007D041F2D926B14208D0BDE87040FFF73D
:1014900079BC286860F080FE206070BD6868F9E75C
:1014A00050680028F9D041F2D122914207D041F290
:1014B000D9229142F1D15DF0B7FB686002E05DF0A6
:1014C000B3FB286000232360E7E7000038B513680A
:1014D00045681446FBB9A1F59653123B092B15D864
:1014E000DFE803F0050E1414141414140B11B5F9ED
:1014F000000060F051FE206038BDB5F90200F8E749
:10150000B5F90400F5E7B5F90600F2E72246BDE8B3
:101510003840FFF737BC50680028EDD0A1F5965150
:1015200012390929E8D801A353F821F0551502080A
:1015300069150208F9140208F9140208F9140208DE
:10154000F9140208F9140208F914020861150208D6
:10155000711502085DF068FB288000232360CBE74B
:101560005DF062FB6880F8E75DF05EFBA880F4E761
:101570005DF05AFBE880F0E738B51368456814461B
:10158000DBB9A1F59653123B092B11D8DFE803F024
:10159000050C1010101010100A0E286860F0FCFDE9
:1015A000206038BD6868F9E7A868F7E7E868F5E7FC
:1015B0002246BDE83840FFF7E5BB50680028F0D070
:1015C000A1F5965112390929EBD801A353F821F05E
:1015D000F91502080D160208A3150208A315020842
:1015E000A3150208A3150208A3150208A3150208F3
:1015F00005160208151602085DF016FB2860002388
:101600002360CEE75DF010FB6860F8E75DF00CFB4F
:10161000A860F4E75DF008FBE860F0E738B5136810
:10162000446815468BBB40F6A45399421ED00FD890
:10163000B1F51A6F21D040F6BE33994221D040F661
:101640001603994217D02A46BDE83840FFF79ABBE7
:1016500041F2BF13994216D041F2B92399420ED0FC
:1016600040F61C739942EED1608900E0207860F06A
:1016700019FE286038BD6078F9E76088F7E7A08830
:10168000F5E7E088F3E72089F1E750680028F1D01A
:1016900040F6A45399421FD00ED8B1F51A6F21D04D
:1016A00040F6BE33994225D040F616039942E1D167
:1016B0005DF0BAFA607012E041F2BF1399421DD09A
:1016C00041F2B923994211D040F61C739942D1D10D
:1016D0005DF0AAFA608102E05DF0A6FA20700023B6
:1016E0002B60C7E75DF0A0FA6080F8E75DF09CFA38
:1016F000A080F4E75DF098FAE080F0E75DF094FAFE
:101700002081ECE713680BB9FFF73CBB7047FFF78C
:10171000F9BFFFF7F7BFFFF7F5BFFFF7F3BF70B5EE
:10172000166845681446BEB940F6AF36B1420BD0D4
:10173000B1F56E6F0AD040F2C676B14208D1287872
:1017400060F0B0FD206070BD6878F9E7A878F7E731
:10175000BDE87040FFF716BB50680028F3D040F694
:10176000AF3291420CD0B1F56E6F0DD040F2C6721F
:101770009142E8D15DF058FA287000232360E2E737
:101780005DF052FA6870F8E75DF04EFAA870F4E781
:10179000014950F0E7B900BF75AE0A08014950F0A1
:1017A000E1B900BF7AAE0A08014950F0DBB900BFC9
:1017B00097AE0A08014950F0D5B900BFAEAE0A088D
:1017C000014950F0CFB900BFC5AE0A08014950F039
:1017D000C9B900BFDDAE0A08014950F0C3B900BF66
:1017E000F4AE0A08014950F0BDB900BF09AF0A08BC
:1017F000014950F0B7B900BF23AF0A08014950F0C2
:10180000B1B900BF39AF0A0810B48B680C7B054A28
:101810000549DB00002C18BF0A4604495DF8044B5B
:1018200050F0A0B9C8A90B0895A30B0858AF0A0837
:10183000014950F097B900BF6CAF0A08014950F058
:1018400091B900BF8AAF0A08014950F08BB900BFB7
:10185000B3AF0A08014950F085B900BFDAAF0A08F2
:10186000014950F07FB900BFFDAF0A08014950F0AF
:1018700079B900BF25B00A08014950F073B900BF1B
:1018800049B00A08014950F06DB900BF74B00A08A8
:10189000014950F067B900BF9EB00A08014950F0F5
:1018A00061B900BFC4B00A08014950F05BB900BF7C
:1018B000EDB00A08014950F055B900BF12B10A084D
:1018C000014950F04FB900BF3AB10A08014950F040
:1018D00049B900BF5EB10A08014950F043B900BFE1
:1018E00082B10A08014950F03DB900BFA0B10A0811
:1018F000014950F037B900BFB2B10A08014950F0B0
:1019000031B900BFC0B10A08014950F02BB900BF7E
:10191000CEB10A08014950F025B900BFE7B10A0865
:10192000014950F01FB900BF01B20A08014950F047
:1019300019B900BF18B20A08014950F013B900BF25
:101940002AB20A08014950F00DB900BF45B20A0891
:10195000014950F007B900BF61B20A08014950F0CF
:1019600001B900BF81B20A08014950F0FBB800BFBD
:101970009DB20A08014950F0F5B800BFB7B20A0895
:10198000014950F0EFB800BFCAB20A08014950F04F
:10199000E9B800BFE1B20A08014950F0E3B800BF5E
:1019A000F8B20A08014950F0DDB800BF0CB30A08CC
:1019B000014950F0D7B800BF20B30A08014950F0E0
:1019C000D1B800BF2FB30A08014950F0CBB800BF0F
:1019D00049B30A08014950F0C5B800BF61B30A080D
:1019E000014950F0BFB800BF7BB30A08014950F06D
:1019F000B9B800BF91B30A08014950F0B3B800BFAD
:101A0000A8B30A08014950F0ADB800BFC0B30A0836
:101A1000014950F0A7B800BFD1B30A08014950F0FE
:101A2000A1B800BFEBB30A08014950F09BB800BF52
:101A300004B40A08014950F095B800BF1DB40A0863
:101A4000014950F08FB800BF37B40A08014950F07F
:101A500089B800BF53B40A08014950F083B800BFE9
:101A600070B40A08014950F07DB800BF86B40A0876
:101A7000014950F077B800BF9EB40A08014950F000
:101A800071B800BFB0B40A08014950F06BB800BF8C
:101A9000CAB40A08014950F065B800BFDDB40A08AD
:101AA000014950F05FB800BFF1B40A08014950F095
:101AB00059B800BF10B50A08014950F053B800BF2B
:101AC0002AB50A08014950F04DB800BF48B50A08C8
:101AD000014950F047B800BF59B50A08014950F014
:101AE00041B800BF7EB50A08014950F03BB800BFBD
:101AF00093B50A08014950F035B800BFADB50A08E2
:101B0000014950F02FB800BFC1B50A08014950F093
:101B100029B800BFD3B50A08014950F023B800BF67
:101B2000E9B50A08014950F01DB800BF02B60A081D
:101B3000014950F017B800BF1CB60A08014950F01F
:101B400011B800BF36B60A08014950F00BB800BF03
:101B50004CB60A08014950F005B800BF60B60A0843
:101B600001494FF0FFBF00BF7BB60A0801494FF0A3
:101B7000F9BF00BF96B60A0801494FF0F3BF00BF96
:101B8000B2B60A0801494FF0EDBF00BFCDB60A0852
:101B900001494FF0E7BF00BFE7B60A0801494FF01F
:101BA000E1BF00BF01B70A0801494FF0DBBF00BF2A
:101BB00019B70A0801494FF0D5BF00BF2BB70A0873
:101BC00001494FF0CFBF00BF3DB70A0801494FF0B0
:101BD000C9BF00BF50B70A0801494FF0C3BF00BFDB
:101BE00062B70A0801494FF0BDBF00BF78B70A08C5
:101BF00001494FF0B7BF00BF8AB70A0801494FF04B
:101C0000B1BF00BF9CB70A0801494FF0ABBF00BF8E
:101C1000AEB70A0801494FF0A5BF00BFC5B70A0813
:101C200001494FF09FBF00BFDBB70A0801494FF0E1
:101C300099BF00BFF1B70A0801494FF093BF00BF39
:101C400003B80A0801494FF08DBF00BF12B80A0857
:101C500001494FF087BF00BF26B80A0801494FF07D
:101C600081BF00BF47B80A0801494FF07BBF00BFE2
:101C700065B80A0801494FF075BF00BF80B80A086F
:101C800001494FF06FBF00BF91B80A0801494FF0FA
:101C900069BF00BFAEB80A0801494FF063BF00BF7B
:101CA000BFB80A0801494FF05DBF00BFDDB80A08A0
:101CB00001494FF057BF00BFF6B80A0801494FF07D
:101CC00051BF00BF0BB90A0801494FF04BBF00BF1D
:101CD00023B90A0801494FF045BF00BF42B90A08BD
:101CE00001494FF03FBF00BF5DB90A0801494FF0FD
:101CF00039BF00BF6EB90A0801494FF033BF00BFBA
:101D000084B90A0801494FF02DBF00BF99B90A08EC
:101D100001494FF027BF00BFABB90A0801494FF096
:101D200021BF00BFBCB90A0801494FF01BBF00BF6B
:101D3000CBB90A0801494FF015BF00BFE6B90A0840
:101D400001494FF00FBF00BF05BA0A0801494FF023
:101D500009BF00BF1FBA0A0801494FF003BF00BF07
:101D600038BA0A0801494FF0FDBE00BF4CBA0A0854
:101D700001494FF0F7BE00BF61BA0A0801494FF0B0
:101D8000F1BE00BF73BA0A0801494FF0EBBE00BFB5
:101D900089BA0A0801494FF0E5BE00BFA1BA0A0896
:101DA00001494FF0DFBE00BFB2BA0A0801494FF047
:101DB000D9BE00BFCCBA0A0801494FF0D3BE00BF5C
:101DC000DEBA0A0801494FF0CDBE00BFF4BA0A08D6
:101DD00001494FF0C7BE00BF07BB0A0801494FF0D9
:101DE000C1BE00BF1BBB0A0801494FF0BBBE00BF0C
:101DF0002EBB0A0801494FF0B5BE00BF4BBB0A0815
:101E000001494FF0AFBE00BF57BB0A0801494FF070
:101E1000A9BE00BF6ABB0A0801494FF0A3BE00BFBC
:101E200082BB0A0801494FF09DBE00BF99BB0A085A
:101E300001494FF097BE00BFA9BB0A0801494FF006
:101E400091BE00BFB9BB0A0801494FF08BBE00BF6D
:101E5000C8BB0A0801494FF085BE00BFE0BB0A08B5
:101E600001494FF07FBE00BFF4BB0A0801494FF0A3
:101E700079BE00BF0BBC0A0801494FF073BE00BF1A
:101E800021BC0A0801494FF06DBE00BF3DBC0A08E5
:101E900001494FF067BE00BF56BC0A0801494FF028
:101EA00061BE00BF64BC0A0801494FF05BBE00BFC1
:101EB00076BC0A0801494FF055BE00BF8ABC0A082B
:101EC00001494FF04FBE00BF9DBC0A0801494FF0C9
:101ED00049BE00BFB0BC0A0801494FF043BE00BF75
:101EE000C3BC0A0801494FF03DBE00BFD5BC0A087B
:101EF00001494FF037BE00BFE8BC0A0801494FF066
:101F000031BE00BFF7BC0A0801494FF02BBE00BF2D
:101F10000BBD0A0801494FF025BE00BF1CBD0A08D1
:101F200001494FF01FBE00BF2DBD0A0801494FF007
:101F300019BE00BF44BD0A0801494FF013BE00BFDF
:101F400057BD0A0801494FF00DBE00BF69BD0A0820
:101F500001494FF007BE00BF7EBD0A0801494FF09E
:101F600001BE00BF91BD0A0801494FF0FBBD00BF93
:101F7000ABBD0A0801494FF0F5BD00BFBBBD0A0863
:101F800001494FF0EFBD00BFD0BD0A0801494FF035
:101F9000E9BD00BFDCBD0A0801494FF0E3BD00BF49
:101FA000EABD0A0801494FF0DDBD00BFFBBD0A08CC
:101FB00001494FF0D7BD00BF0ABE0A0801494FF0E2
:101FC000D1BD00BF20BE0A0801494FF0CBBD00BF04
:101FD0002DBE0A0801494FF0C5BD00BF3BBE0A082F
:101FE00001494FF0BFBD00BF49BE0A0801494FF08B
:101FF000B9BD00BF5CBE0A0801494FF0B3BD00BFC8
:102000006EBE0A0801494FF0ADBD00BF7ABE0A0896
:1020100001494FF0A7BD00BF8DBE0A0801494FF02E
:10202000A1BD00BFA4BE0A0801494FF09BBD00BF7F
:10203000B0BE0A0801494FF095BD00BFB9BE0A08FD
:1020400001494FF08FBD00BFC6BE0A0801494FF0DD
:1020500089BD00BFCFBE0A0801494FF083BD00BF54
:10206000DDBE0A0801494FF07DBD00BFEABE0A0887
:1020700001494FF077BD00BF02BF0A0801494FF088
:1020800071BD00BF0DBF0A0801494FF06BBD00BF15
:1020900028BF0A0801494FF065BD00BF34BF0A08D8
:1020A00001494FF05FBD00BF41BF0A0801494FF031
:1020B00059BD00BF4EBF0A0801494FF053BD00BFD4
:1020C0005CBF0A0801494FF04DBD00BF6BBF0A0855
:1020D00001494FF047BD00BF86BF0A0801494FF0D4
:1020E00041BD00BF9ABF0A0801494FF03BBD00BF88
:1020F000A6BF0A0801494FF035BD00BFB9BF0A08A5
:1021000001494FF02FBD00BFC4BF0A0801494FF07D
:1021100029BD00BFD8BF0A0801494FF023BD00BF49
:10212000E4BF0A0801494FF01DBD00BFF0BF0A0817
:1021300001494FF017BD00BF04C00A0801494FF024
:1021400011BD00BF16C00A0801494FF00BBD00BF0A
:1021500025C00A0801494FF005BD00BF34C00A0878
:1021600001494FF0FFBC00BF52C00A0801494FF0BF
:10217000F9BC00BF66C00A0801494FF0F3BC00BFBC
:1021800070C00A0801494FF0EDBC00BF7AC00A08D0
:1021900001494FF0E7BC00BF84C00A0801494FF075
:1021A000E1BC00BF8DC00A0801494FF0DBBC00BF95
:1021B000A3C00A0801494FF0D5BC00BFB1C00A084E
:1021C00001494FF0CFBC00BFCBC00A0801494FF016
:1021D000C9BC00BFDCC00A0801494FF0C3BC00BF46
:1021E000EAC00A0801494FF0BDBC00BFF8C00A08A8
:1021F00001494FF0B7BC00BF0BC10A0801494FF0BD
:10220000B1BC00BF25C10A0801494FF0ABBC00BFFB
:1022100038C10A0801494FF0A5BC00BF43C10A08F4
:1022200001494FF09FBC00BF4FC10A0801494FF060
:1022300099BC00BF6DC10A0801494FF093BC00BFB3
:1022400088C10A0801494FF08DBC00BF96C10A0839
:1022500001494FF087BC00BFB0C10A0801494FF0E7
:1022600081BC00BFC2C10A0801494FF07BBC00BF5E
:10227000CEC10A0801494FF075BC00BFE6C10A088B
:1022800001494FF06FBC00BFF7C10A0801494FF088
:1022900069BC00BF00C20A0801494FF063BC00BF1F
:1022A00018C20A0801494FF05DBC00BF23C20A08EA
:1022B00001494FF057BC00BF34C20A0801494FF032
:1022C00051BC00BF3DC20A0801494FF04BBC00BFE2
:1022D0004AC20A0801494FF045BC00BF5EC20A0865
:1022E00001494FF03FBC00BF70C20A0801494FF0DE
:1022F00039BC00BF87C20A0801494FF033BC00BF98
:102300009BC20A0801494FF02DBC00BFA6C20A08B3
:1023100001494FF027BC00BFB7C20A0801494FF07E
:1023200021BC00BFDBC20A0801494FF01BBC00BF43
:10233000F7C20A0801494FF015BC00BF12C30A08D2
:1023400001494FF00FBC00BF33C30A0801494FF0E9
:1023500009BC00BF49C30A0870B5064608460C46CA
:102360004DF092FF22460546314676F0D9FB2846CD
:1023700070BD70B505465CF07FFD20B92846BDE80C
:102380007040FEF761B85CF04FFC4DF07DFF00211E
:10239000044628465BF078F8661E054628465BF042
:1023A000E7F808B9204670BD5CF03EFC06F8010F66
:1023B000F4E7F8B508680C461546FEF745F80646FA
:1023C0006068FFF7D6FF0746A068FFF7D2FF3946DF
:1023D00002463046A8470620F8BD70B505465CF0B9
:1023E0004BFD20B92846BDE87040FEF72DB85CF0E3
:1023F0001BFC80004DF048FF0021044628465BF09E
:1024000043F8261F054628465BF0B2F808B9204677
:1024100070BDFEF719F846F8040FF4E770B50546ED
:102420005CF02AFD20B92846BDE87040FEF70CB8E4
:102430005CF0FAFB40004DF027FF002104462846DF
:102440005BF022F8A61E054628465BF091F808B915
:10245000204670BD5CF0E8FB26F8020FF4E770B58B
:1024600005465CF009FD20B92846BDE87040FDF73F
:10247000EBBF5CF0D9FB80004DF006FF0021044665
:1024800028465BF001F8261F054628465BF070F8E9
:1024900008B9204670BD5CF0C7FB46F8040FF4E7AE
:1024A000F0B5ADF6044D6E46451E00F2FF243746EA
:1024B00015F8010F5FF0F6FEA54246F8040BF7D1C0
:1024C00039464FF4407060F001FB0DF6044DF0BD4D
:1024D00070B5166845681446A6B940F66206B14262
:1024E00008D041F26D16B14208D128685FF054FE61
:1024F000206070BD281DFFF7D3FFF9E7BDE87040ED
:10250000FEF740BC50680028F3D040F662029142CA
:1025100009D041F26D129142EBD15CF085FB28604D
:1025200000232360E5E7FFF724FF4FF440720146E4
:10253000281D76F0F5FAF3E71FB5044688B10628A2
:1025400018D0830710D103680B4A934202D00B4A7C
:10255000934209D1012201A920465CF099FD18B1EE
:10256000019C204604B010BD204604B0BDE81040D8
:1025700062F076BD0024F4E7047C0E08C47B0E08EC
:102580002DE9F04108680C461546FDF75DFF06464B
:102590006068FDF759FF0746A068FFF7CDFF80464A
:1025A000E0685CF041FB4246034639463046A847A6
:1025B000BDE8F0415FF0F0BDF8B508680C4615467F
:1025C000FFF7BAFF064660685CF02EFB0746A0687E
:1025D0005CF02AFB394602463046A8470620F8BD83
:1025E000F8B508680C461546FFF7A6FF0646606872
:1025F0005CF01AFB0746A068FFF79EFF39460246CB
:102600003046A8470620F8BDF8B508680C461546C0
:10261000FFF792FF06466068FFF78EFF0746A06847
:102620005CF002FB394602463046A847BDE8F84058
:102630005FF0B2BD70B508680C461546FFF77CFF29
:1026400006466068FFF778FF01463046A847BDE8B8
:1026500070405FF0A1BDF8B508680C461546FFF75D
:102660006BFF06466068FFF767FF0746A0685CF0EF
:10267000DBFA394602463046A847BDE8F8405FF02D
:1026800011BE70B508680C461546FFF755FF0646A3
:1026900060685CF0C9FA01463046A847BDE8704062
:1026A0005FF000BE10B508681446FFF745FFA0476D
:1026B000BDE810405FF0F6BD70B508680C461546E1
:1026C000FFF73AFF06466068FFF736FF01463046DF
:1026D000A84700280CBF0E201E2070BD70B505460F
:1026E0005CF0CAFB20B92846BDE87040FDF7ACBEDF
:1026F0005CF09AFA80004DF0C7FD002104462846A0
:102700005AF0C2FE261F054628465AF031FF08B986
:10271000204670BDFFF710FF46F8040FF4E738B508
:1027200004460D4629F0D6FB29462046BDE8384030
:1027300029F0D6BB38B504460D4629F0CBFB294617
:10274000204629F0CDFB2946204629F0B7FB294633
:102750002046BDE8384029F0B7BB38B504460D46E1
:1027600029F0ACFB29462046BDE8384029F0ACBB37
:1027700038B504460D4629F08FFB29462046BDE8B2
:10278000384029F08FBB38B504460D4629F078FB58
:1027900029462046BDE8384029F078BB38B50446C4
:1027A0000D4629F061FB29462046BDE8384029F056
:1027B00061BB38B504460D4629F062FB2946204628
:1027C00029F064FB2946204629F04EFB2946204685
:1027D000BDE8384029F04EBB38B504460D4629F017
:1027E00019FB29462046BDE8384029F019BB38B509
:1027F0000446154629F0B4FA29462046BDE838407B
:1028000029F0C0BA4168013926F010BF002126F036
:102810000DBF10B50C4625F00BFE204214BF012061
:10282000002010BD26F000BD08B52AF005FDB0FA65
:1028300080F0400908BD0A4600212AF067BC00006C
:1028400008B5044BD3F890300BB12CF0F3F8062008
:1028500008BD00BFB409002008B5054BD3F890208F
:1028600022B90122C3F890202CF08EF8062008BD72
:10287000B409002070B504460D46164640F0D7F95D
:10288000324629462046BDE8704040F0D7B970B5C1
:1028900004460D46164640F0BCF93246294620460D
:1028A000BDE8704040F0BCB970B504460D46164610
:1028B00040F0BDF932462946204640F0BFF9324685
:1028C0002946204640F0A5F9324629462046BDE873
:1028D000704040F0A5B970B504460D46164640F06C
:1028E00083F9324629462046BDE8704040F083B95E
:1028F00070B504460D46164640F068F93246294642
:102900002046BDE8704040F068B970B504460D46F9
:10291000164640F04DF9324629462046BDE8704043
:1029200040F04DB970B504460D46164640F04EF9DC
:1029300032462946204640F050F932462946204684
:1029400040F036F9324629462046BDE8704040F056
:1029500036B970B504460D46164640F0F8F83246D2
:1029600029462046BDE8704040F0F8B870B50546ED
:1029700016461C461A4640F081F822463146284643
:10298000BDE8704040F08FB807B56D2240F046FEBC
:1029900003B05DF804FB08B5FFF7F6FF0128B8BFE8
:1029A000012008BD07B56C2240F038FE03B05DF889
:1029B00004FB08B5FFF7F6FF0128B8BF012008BDEA
:1029C00007B5112240F02AFE03B05DF804FB07B5FD
:1029D000302240F023FE03B05DF804FB07B534223B
:1029E00040F01CFEC0B203B05DF804FBF8B505462C
:1029F0000E46FFF7E5FF314604462846FFF7E7FF9E
:102A0000314607462846FFF7E9FFC30748BFE419E8
:102A10002046F8BD07B5102240F000FE03B05DF877
:102A200004FBF8B505460E46FFF7F4FF31460446B1
:102A30002846FFF7CCFF314607462846FFF7CEFF72
:102A4000830748BFE4192046F8BD07B5132240F0BC
:102A5000E5FD03B05DF804FBF8B505460E46FFF74B
:102A6000F4FF314604462846FFF7B1FF31460746DA
:102A70002846FFF7B3FF030748BFE4192046F8BD17
:102A800007B5122240F0CAFD03B05DF804FBF8B5AB
:102A900005460E46FFF7F4FF314604462846FFF789
:102AA00096FF314607462846FFF798FF430748BF81
:102AB000E4192046F8BD07B58A2240F0AFFD03B007
:102AC0005DF804FB07B58B2240F0A8FDC0B203B04F
:102AD0005DF804FB07B5892240F0A0FD03B05DF866
:102AE00004FB07B5872240F099FD03B05DF804FBB5
:102AF00007B5882240F092FDC0B203B05DF804FB38
:102B000007B5862240F08AFD03B05DF804FB07B5E7
:102B1000832240F083FDC0B203B05DF804FB07B52B
:102B2000842240F07BFD03B05DF804FB07B58222F0
:102B300040F074FDC0B203B05DF804FB07B5852218
:102B400040F06CFD03B05DF804FB07B5812240F056
:102B500065FDC0B203B05DF804FB07B5802240F00C
:102B60005DFDC0B203B05DF804FB07B57F2240F005
:102B700055FDC0B203B05DF804FB07B57E2240F0FE
:102B80004DFDC0B203B05DF804FB07B57D2240F0F7
:102B900045FDC0B203B05DF804FB07B5742240F0F8
:102BA0003DFD03B05DF804FB07B5732240F036FD30
:102BB00003B05DF804FB07B5272240F02FFDC0B23B
:102BC00003B05DF804FB07B5162240F027FD80B284
:102BD00003B05DF804FB07B5672240F01FFDC0B2EB
:102BE00003B05DF804FB07B5662240F017FD03B0A3
:102BF0005DF804FB07B5642240F010FD03B05DF8FA
:102C000004FB07B5632240F009FD03B05DF804FB47
:102C100007B5622240F002FDC0B203B05DF804FBCC
:102C200007B5612240F0FAFC03B05DF804FB07B57C
:102C3000602240F0F3FCC0B203B05DF804FB07B5BE
:102C40005F2240F0EBFCC0B203B05DF804FB07B5B7
:102C50002D2240F0E3FC003818BF012003B05DF8DE
:102C600004FB07B50D2240F0D9FC03B05DF804FB6E
:102C700007B50C2240F0D2FC03B05DF804FB07B5A9
:102C80005E2240F0CBFCC0B203B05DF804FB07B598
:102C90005D2240F0C3FCC0B203B05DF804FB07B591
:102CA0005C2240F0BBFC03B05DF804FB07B55B227F
:102CB00040F0B4FC03B05DF804FB07B55A2240F0C5
:102CC000ADFC03B05DF804FB07B5592240F0A6FC4B
:102CD000C0B203B05DF804FB30B5582285B004469D
:102CE0000D4640F09BFC29460246204640F0D8FCA9
:102CF0000346DAB2002062F30700C3F3072262F34F
:102D00000F20C3F3074363F3174005B030BD07B589
:102D1000582240F083FC0346DAB2002062F3070039
:102D2000C3F3072262F30F20C3F3074363F3174093
:102D300003B05DF804FB07B5542240F06FFC03B00C
:102D40005DF804FB07B5532240F068FCC0B203B045
:102D50005DF804FB30B5522285B004460D4640F0C4
:102D60005DFC29460246204640F09AFC0346DAB252
:102D7000002062F30700C3F3072262F30F20C3F3BE
:102D8000074363F3174005B030BD07B5522240F04A
:102D900045FC0346DAB2002062F30700C3F30722C2
:102DA00062F30F20C3F3074363F3174003B05DF8EA
:102DB00004FB07B5512240F031FC003818BF012058
:102DC00003B05DF804FB07B5502240F027FC03B0C8
:102DD0005DF804FB07B54D2240F020FCC0B203B003
:102DE0005DF804FB30B54C2285B004460D4640F03A
:102DF00015FC29460246204640F052FC0346DAB252
:102E0000002062F30700C3F3072262F30F20C3F32D
:102E1000074363F3174005B030BD07B54C2240F0BF
:102E2000FDFB0346DAB2002062F30700C3F307227A
:102E300062F30F20C3F3074363F3174003B05DF859
:102E400004FB07B54B2240F0E9FB003818BF012016
:102E500003B05DF804FB07B54A2240F0DFFB03B086
:102E60005DF804FB07B5492240F0D8FB03B05DF8DC
:102E700004FB07B5482240F0D1FB03B05DF804FB2A
:102E800007B5462240F0CAFBC0B203B05DF804FBB0
:102E900030B5452285B004460D4640F0BFFB2946BB
:102EA0000246204640F0FCFB0346DAB2002062F303
:102EB0000700C3F3072262F30F20C3F3074363F352
:102EC000174005B030BD07B5452240F0A7FB0346CB
:102ED000DAB2002062F30700C3F3072262F30F2087
:102EE000C3F3074363F3174003B05DF804FB07B572
:102EF000442240F093FBC0B203B05DF804FB07B579
:102F00003E2240F08BFBC0B203B05DF804FB30B54D
:102F10003D2285B004460D4640F080FB294602461E
:102F2000204640F0BDFB0346DAB2002062F3070002
:102F3000C3F3072262F30F20C3F3074363F3174081
:102F400005B030BD07B53D2240F068FB0346DAB25C
:102F5000002062F30700C3F3072262F30F20C3F3DC
:102F6000074363F3174003B05DF804FB07B5422243
:102F700040F054FB03B05DF804FB07B5412240F07C
:102F80004DFB03B05DF804FB07B5402240F046FB63
:102F900003B05DF804FB07B53C2240F03FFB03B0F3
:102FA0005DF804FB07B53B2240F038FB03B05DF849
:102FB00004FB07B53A2240F031FBC0B203B05DF824
:102FC00004FB30B5392285B004460D4640F026FB9F
:102FD00029460246204640F063FB0346DAB2002051
:102FE00062F30700C3F3072262F30F20C3F3074322
:102FF00063F3174005B030BD07B5392240F00EFB32
:103000000346DAB2002062F30700C3F3072262F33B
:103010000F20C3F3074363F3174003B05DF804FBCD
:1030200007B5382240F0FAFA03B05DF804FB07B5A3
:10303000352240F0F3FA003818BF012003B05DF8E4
:1030400004FB07B5322240F0E9FAC0B203B05DF8E4
:1030500004FB30B5312285B004460D4640F0DEFA5F
:1030600029460246204640F01BFB0346DAB2002008
:1030700062F30700C3F3072262F30F20C3F3074391
:1030800063F3174005B030BD07B5312240F0C6FAF2
:103090000346DAB2002062F30700C3F3072262F3AB
:1030A0000F20C3F3074363F3174003B05DF804FB3D
:1030B00007B52C2240F0B2FA003818BF012003B047
:1030C0005DF804FB07B52B2240F0A8FAC0B203B0AC
:1030D0005DF804FB30B52A2285B004460D4640F069
:1030E0009DFA29460246204640F0DAFA0346DAB253
:1030F000002062F30700C3F3072262F30F20C3F33B
:10310000074363F3174005B030BD07B52A2240F0EE
:1031100085FA0346DAB2002062F30700C3F3072200
:1031200062F30F20C3F3074363F3174003B05DF866
:1031300004FB07B5292240F071FAC0B203B05DF874
:1031400004FB07B5282240F069FA03B05DF804FBE0
:1031500007B5262240F062FA03B05DF804FB07B51C
:10316000252240F05BFAC0B203B05DF804FB07B55E
:10317000242240F053FAC0B203B05DF804FB07B557
:10318000222240F04BFA03B05DF804FB07B5212280
:1031900040F044FA03B05DF804FB07B5202240F08C
:1031A0003DFAC0B203B05DF804FB30B5232285B010
:1031B00004460D4640F032FA29460246204640F0C9
:1031C0006FFA0346DAB2002062F30700C3F3072266
:1031D00062F30F20C3F3074363F3174005B030BD1C
:1031E00007B5232240F01AFA0346DAB2002062F350
:1031F0000700C3F3072262F30F20C3F3074363F30F
:10320000174003B05DF804FB07B51D2240F006FA35
:10321000C0B203B05DF804FB30B51C2285B0044693
:103220000D4640F0FBF929460246204640F038FAA8
:103230000346DAB2002062F30700C3F3072262F309
:103240000F20C3F3074363F3174005B030BD07B544
:103250001C2240F0E3F90346DAB2002062F30700D3
:10326000C3F3072262F30F20C3F3074363F317404E
:1032700003B05DF804FB07B51B2240F0CFF903B0A3
:103280005DF804FB07B51A2240F0C8F903B05DF8F9
:1032900004FB07B5192240F0C1F903B05DF804FB47
:1032A00007B5182240F0BAF903B05DF804FB07B582
:1032B0000E2240F0B3F903B05DF804FB07B5152208
:1032C00040F0ACF903B05DF804FB07B5142240F000
:1032D000A5F903B05DF804FB07B5722240F09EF932
:1032E00003B05DF804FB07B5712240F097F903B015
:1032F0005DF804FB07B5702240F090F903B05DF86B
:1033000004FB07B56F2240F089F903B05DF804FBB8
:1033100007B56E2240F082F903B05DF804FB07B5F3
:10332000752240F07BF903B05DF804FB07B56B2212
:1033300040F074F903B05DF804FB07B56A2240F071
:103340006DF903B05DF804FB07B5692240F066F93A
:1033500003B05DF804FB07B5682240F05FF903B0E5
:103360005DF804FB07B50A2240F058F9C0B203B07B
:103370005DF804FB07B5092240F050F903B05DF891
:1033800004FB07B5082240F049F903B05DF804FBDF
:1033900007B5032240F042F903B05DF804FB07B51E
:1033A000072240F03BF903B05DF804FB07B50622A5
:1033B00040F034F903B05DF804FB07B5022240F099
:1033C0002DF903B05DF804FB07B5052240F026F99E
:1033D00003B05DF804FB07B5042240F01FF903B009
:1033E0005DF804FB07B5012240F018F903B05DF861
:1033F00004FB00213FF064BA10B504463FF024F806
:1034000038B13FF06DF8411E2046BDE810403FF056
:1034100057BA10BD18B3A0F59C43B3F5A44F1DD304
:1034200000F17F4303F1FF135D2B17D9A0F5405343
:10343000FF2B13D9A0F53A537F2B0FD9A0F5475393
:103440002F2B0BD9A0F57E40A0F110030F2B05D92F
:1034500030381F288CBF00200120704701207047A2
:103460001F2825D940F21C63984221D0A0F58A5329
:103470001F3B012B1CD9A0F5C0530B3B032B17D9C5
:10348000A0F50053A3F10B02042A11D9283B072B06
:103490000ED9A0F501531F3B102B09D94FF6FF633E
:1034A000984205D04FF6FF03C31A5842584170475F
:1034B0000120704710B5094CD4F8943063B94FF42B
:1034C000E8704CF0FAFE064B064A18600123C4F877
:1034D000F401C4F89430136010BD00BFB40900209B
:1034E000740900206C09002038B505460C4629B146
:1034F00008204CF0C9FEC0E9005438BD0620FCE7A6
:1035000001460148FFF7F0BF24890C0808B5904731
:10351000BDE80840FFF7F4BF01460148FFF7E4BFEC
:1035200004C80C0808B59047BDE80840FFF7F4BF91
:1035300070B508680C461546FCF786FF06466068BD
:103540005BF072FBC1B23046A847BDE87040FFF7A0
:10355000E3BF70B508680C4615465BF065FB064690
:1035600060685BF061FBC1B23046A847BDE87040BF
:10357000FFF7D2BF10B5086814465BF055FBA047B3
:10358000BDE81040FFF7C8BF2DE9F74308680C46B7
:103590001546FCF759FF06466068FCF755FF0746DD
:1035A000A0685BF041FB8046E0685BF03DFB814634
:1035B0002069FCF749FF4B460090424639463046A9
:1035C000A84703B0BDE8F043FFF7A6BF70B5086891
:1035D0000C4615465BF028FB064660685BF024FB52
:1035E00001463046A847BDE87040FFF795BF70B56B
:1035F00008680C461546FCF727FF064660685BF036
:1036000013FB01463046A847BDE87040FFF784BF72
:10361000FFF7EDBFF8B508680C461546FCF714FF38
:1036200006466068FCF710FF0746A0685BF0FCFAEE
:10363000394602463046A847BDE8F840FFF76CBF60
:1036400038B513684568144643BB40F6A743994212
:103650001CD00CD840F64903994219D040F6930388
:10366000994219D02246BDE83840FDF78BBB40F6A1
:103670005463994205D040F62F739942F2D1A8685D
:1036800000E02868FFF748FF206038BD6868F9E768
:10369000287B5EF081FDF7E72869F3E75068002892
:1036A000F3D040F6A74399421ED00BD840F6490309
:1036B00099421DD040F693039942E6D1FCF7C4FE2F
:1036C00028610EE040F65463994207D040F62F730C
:1036D0009942DAD1FCF7B8FEA86002E0FCF7B4FE2C
:1036E000286000232360D0E7FCF7AEFE6860F8E7AF
:1036F0005BF09AFA2873F4E738B513684568144606
:1037000043BB40F6240399421AD00CD840F622035A
:1037100099421BD040F62303994213D02246BDE8BC
:103720003840FDF72FBB40F63103994210D040F6E8
:1037300054639942F2D12868FFF7EEFE206038BD4D
:103740006868F9E7A8685EF0ADFDF7E7E868FAE7B2
:103750002869F1E750680028F1D040F62403994227
:103760001AD00BD840F62203994219D040F6230311
:103770009942E4D15BF058FAA8600AE040F63103C0
:10378000994211D040F654639942D8D1FCF75CFEBF
:10379000286000232360D2E7FCF756FE6860F8E754
:1037A0005BF042FAE860F4E7FCF74EFE2861F0E7D0
:1037B00038B5136845681446F3B940F2E37399428B
:1037C00016D008D84E2911D092290AD02246BDE839
:1037D0003840FDF7D7BA40F692139942F6D1A8685F
:1037E00000E028685EF05EFD206038BD6868F9E79B
:1037F000E868FFF791FEF7E750680028F5D040F23F
:10380000E373994216D009D84E290FD09229ECD1F2
:103810005BF00AFA286000232360E6E740F6921383
:103820009942E2D15BF000FAA860F4E75BF0FCF9A2
:103830006860F0E7FCF708FEE860ECE770B5166832
:1038400045681446D6B940F69A66B14214D041F2A2
:10385000A126B14207D040F6C936B14208D0BDE832
:103860007040FDF78FBA2868FFF756FE206070BDE4
:1038700068685EF017FDF9E7287AFAE750680028D3
:10388000F5D040F69A62914211D041F2A1229142C4
:1038900007D040F6C9329142E9D15BF0C5F96860C2
:1038A00002E0FCF7D1FD286000232360DFE75BF036
:1038B000BBF92872F8E738B5136844681546002B41
:1038C0004AD140F65163994238D017D840F6C40324
:1038D000994237D00CD840F6460399422AD040F698
:1038E0008403994221D02A46BDE83840FDF74ABA00
:1038F00040F63D639942F6D1606817E041F2B0139B
:10390000994225D00BD840F69463994218D041F2E1
:10391000AF139942E7D1207EC0F3800015E041F259
:103920009D239942DFD1E06800E02068FFF7F4FDB5
:10393000286038BDA0685EF02FFCF9E72069F5E744
:103940006069F3E7207E00F001005EF0ABFCEFE77A
:10395000207EC0F34000F8E750680028E9D040F628
:10396000516399423AD01AD840F6C40399423DD0E7
:103970000DD840F6460399422CD040F68403994274
:10398000D7D1FCF761FD206000232B60D1E740F622
:103990003D639942CDD1FCF757FD6060F4E741F2F9
:1039A000B013994229D00DD840F69463994219D0AA
:1039B00041F2AF139942BCD15BF036F9237E60F33C
:1039C000820318E041F29D239942B2D1FCF73CFDFD
:1039D000E060D9E75BF028F9A060D5E7FCF734FD9B
:1039E0002061D1E7FCF730FD6061CDE75BF01CF9A9
:1039F000237E60F300032376C6E75BF015F9237E90
:103A000060F34103F7E770B5166845681446D6B908
:103A100040F61166B1420BD041F2FF16B14210D010
:103A200040F6CF36B14208D0BDE87040FDF7AAB9E4
:103A300028685EF037FC206070BD6868FFF76CFD99
:103A4000F9E7A868FAE750680028F5D040F6116257
:103A500091420BD041F2FF1291420DD040F6CF328D
:103A60009142E9D1FCF7F0FC686002E05BF0DCF821
:103A7000286000232360DFE7FCF7E6FCA860F8E796
:103A800070B516684568144696B95C2907D041F2AE
:103A90009516B14208D0BDE87040FDF773B92868AB
:103AA0005EF000FC206070BD2868FFF735FDF9E787
:103AB00050680028F7D05C2906D041F29512914257
:103AC000F1D1FCF7C1FC01E05BF0AEF80023286007
:103AD0002360E8E72DE9FF4116684468154666BB98
:103AE00040F65966B1420CD041F26D16B14220D079
:103AF00040F2E376B14218D004B0BDE8F041FDF7E2
:103B000041B96F46661EB846033416F8010F5EF0E1
:103B100043FBA64247F8040BF7D1414604205EF070
:103B2000D5FF286004B0BDE8F0816068FFF7F4FCC1
:103B3000F7E7A0685EF0B6FBF3E750680028F1D025
:103B400040F6596291420BD041F26D1291420ED073
:103B500040F2E3729142E5D1FCF776FC606003E04D
:103B6000FEF707FC0368236000232B60DAE75BF0B5
:103B70005BF8A060F8E770B508680C461546FCF7DE
:103B800063FC06466068FEF7D7FC01463046A8474E
:103B9000BDE87040FFF7C0BCF8B508680C46154694
:103BA000FCF752FC06466068FEF7C6FC0746A068B4
:103BB0005BF03AF83946C2B23046A847BDE8F84053
:103BC000FFF7AABC01460148FFF78EBC90840C08A1
:103BD00001460148FFF788BC44790C0801460148BA
:103BE000FFF782BCA4920C0801460148FFF77CBC99
:103BF00030980C0873B5086815460C465BF014F84D
:103C0000064660685BF010F8C1B2F0B2A847C0F396
:103C100007238DF80400C0F307408DF80600032148
:103C200001A88DF80530FEF797FBFFF7DDFF02B026
:103C300070BD13B5086814465AF0F6FFC0B2A0472D
:103C4000C0F307238DF80400C0F307408DF8060089
:103C5000032101A88DF80530FEF77EFBFFF7C4FFB6
:103C600002B010BD07B59047C0F307238DF80400DC
:103C7000C0F307408DF80600032101A88DF8053038
:103C8000FEF76AFBFFF7B0FF03B05DF804FBF7B582
:103C900008680C4615465AF0C7FF064660685AF099
:103CA000C3FF0746A0685AF0BFFFF9B2C2B2B0B274
:103CB000A847C0F307238DF80400C0F307408DF830
:103CC0000600032101A88DF80530FEF745FBFFF73C
:103CD0008BFF03B0F0BD13B5086814465AF0A4FF7B
:103CE000A047C0F307238DF80400C0F307408DF808
:103CF0000600032101A88DF80530FEF72DFBFFF724
:103D000073FF02B010BDF7B508680C4615465AF0AF
:103D10008BFF064660685AF087FF0746A0685AF096
:103D200083FFF9B2C2B2F0B2A847C0F307238DF8FF
:103D30000400C0F307408DF80600032101A88DF8A8
:103D40000530FEF709FBFFF74FFF03B0F0BD0000A1
:103D500001460148FFF7C8BB5C880C0801460148D2
:103D6000FFF7C2BBE0880C0808B59047BDE80840E3
:103D7000FFF7F4BF70B508680C4615465AF054FFBB
:103D8000064660685AF050FF01463046A847BDE835
:103D90007040FFF7E3BF000010B5086814465AF002
:103DA00043FFA047BDE8104001460148FFF79CBB18
:103DB000F4730C0808B59047BDE808400146014877
:103DC000FFF792BBA81B0C0801460148FFF78CBB0C
:103DD000788F0C0870B508680C461546FCF734FB64
:103DE00006466068FCF730FB01463046A847BDE850
:103DF0007040FFF7E9BF000001460148FFF774BBC0
:103E0000FC910C082DE9F04108680C4615465AF063
:103E10000BFF064660685AF007FF0746A0685AF095
:103E200003FF8046E0685AF0FFFE5FFA88F203461F
:103E300039463046A847BDE8F041FFF7DDBF000036
:103E400001460148FFF750BB98910C0870B508680F
:103E50000C461546FCF7F8FA064660685AF0E4FE90
:103E600001463046A847BDE87040FFF7E9BF08B5F6
:103E70009047BDE80840FFF7E3BF10B50868144657
:103E8000FEF75AFBA047BDE81040FFF7D9BF00007E
:103E900001460148FFF728BB10600C0810B5086800
:103EA00014465AF0C1FEC0B2A047BDE81040FFF76B
:103EB000EFBF000001460148FFF716BB38610C0850
:103EC00008B59047BDE80840FFF7F4BF10B5086893
:103ED0001446FCF7B9FAA047BDE810400146014876
:103EE000FFF702BBFC610C0870B548680C4615462C
:103EF000FCF7AAFA06462068FCF7A6FA3146A8475E
:103F0000BDE8704001460148FFF7EEBAB0930C08D7
:103F10002DE9F34108680C4615465AF085FE064621
:103F200060685AF081FE0746A0685AF07DFE804620
:103F3000E0685AF079FE5FFA88F2C3B2F9B2F0B2E3
:103F4000A847042101900DEB0100FEF705FA014698
:103F50000248FFF7C9FA02B0BDE8F08114780C08F6
:103F600001460148FFF7C0BA78720C0808B59047BF
:103F7000BDE8084001460148FFF7B6BA78890C0849
:103F8000F7B508680C4615465AF04EFE06466068BE
:103F90005AF04AFE0746A0685AF046FEF9B2C2B28D
:103FA000F0B2A847042101900DEB0100FEF7D4F90F
:103FB00001460248FFF798FA03B0F0BD90150C08CF
:103FC00010B508681446FCF73FFAA047BDE810405A
:103FD00001460148FFF788BAAC1A0C0813B5086807
:103FE00014465AF021FEC0B2A047042101900DEB07
:103FF0000100FEF7B1F901460248FFF775FA02B079
:1040000010BD00BF38810C08F8B508680C4615468D
:10401000FCF71AFA064660685AF006FE0746A068E2
:104020005AF002FE394602463046A847BDE8F8403D
:1040300001460148FFF758BAB41E0C0808B590476E
:10404000BDE8084001460148FFF74EBAD41F0C08EE
:1040500083071ED10168D9B18B7CD3B101EB8303F7
:104060001B69B3B10B7C53B101EB8303094A1B6994
:1040700093420ED0084A934201D1704719468B7C77
:1040800023B101EB83031B69002BF7D163F0C3BBA2
:10409000084670478FEF02089B02020838B50446B5
:1040A000F8B106281FD0FFF7D3FF8307044605D0D9
:1040B0000E490F485CF04EFE4CF0BEF85AF0F0FC92
:1040C000037A002BF4D020465AF0EAFC054620463D
:1040D0005AF0E6FC037A05EB8305064B2A699A42FF
:1040E000E6D1204638BD0024FBE700BF52C30A08D2
:1040F0001C800E080142020806282DE9F74F804671
:104100000C4618D10B7A73B940465AF0D5FC0546D7
:10411000E0884CF0A2FF344903462A4633485CF05D
:10412000AFFE4CF089F801EB83031A69304B9A42D9
:10413000EAD1304F2AE010F00305E5D1FFF788FF00
:1041400006460028E0D0D0F800904C454AD02A4BD3
:104150009945D9D1237A002BD6D004EB83031A6971
:10416000234B9A42D0D12B462A462946204600F0BE
:1041700047F8494607463046FFF7BEFF4FF0040AAE
:104180000646B3689D4205D3002FBDD0384603B024
:10419000BDE8F08FF36853F8359003EBC502536820
:1041A000B9F1000F1CD0CDE900A3637B04EB8303BE
:1041B0004846D3F810B060F03BFF6A4601463846E7
:1041C000D847009B63B1484660F032FF4CF045FF92
:1041D0000546E0884CF041FF084903462A469DE722
:1041E0000135CEE70746D1E76AC30A081C800E08EE
:1041F0000142020880C80C08C87E0E0877C30A086E
:104200002DE9F84310F0030907460C4616461D46F3
:104210000BD10268304B9A4207D1037A2BB100EBE5
:1042200083031A692D4B9A4205D02D492D485CF025
:1042300091FD4CF001F8FCF7DAF831460222804695
:1042400020465AF013F908204CF01EF80646002CC0
:104250003BD02868C1072AD410F0030403D10268B8
:10426000214B9A4205D03946FFF746FFFFF716FF6C
:1042700004462868C20705D483071AD102681A4B7E
:104280009A4216D15AF0D0FC0546B8F1000F21D061
:1042900094B1606880B9C6E9007028B105FB08F2E6
:1042A0007CB1616874F03CFC3046BDE8F8834C4654
:1042B000DFE70125E9E7012505FB08F04BF0E4FF06
:1042C000E9E7214674F070FCEEE7B8F1000FF2D197
:1042D000444601254046DEE79C910E080142020853
:1042E0008AC30A081C800E08C8850E082DE9F84309
:1042F00004460F461646FFF7D1FE804618B9002443
:104300002046BDE8F8834368002BF8D0FA070BD4A9
:10431000BB0703D13A681C4B9A4205D01B491C4885
:104320005CF018FD4BF088FF20465AF0B9FB81463F
:10433000FCF75DF8054628B338465AF075FCD8F806
:10434000047005FB00772EB92A463146384674F0D2
:104350002BFCD5E708204BF097FF042EC0E900970F
:104360000446CDD049463046FFF7C6FEFFF796FE1D
:104370000028C4D041680029C1D060682A4674F082
:10438000CFFBBDE70624BBE7C8850E08A3C30A0818
:104390001C800E0808B50249FFF7AEFE406808BD54
:1043A00024890C0810B508681446FFF7F3FFA047EE
:1043B00000280CBF0E201E2010BD10B50868144642
:1043C000FFF7E8FFA047BDE81040FFF7A5B810B51C
:1043D00008681446FFF7DEFFA047BDE81040FFF76E
:1043E0008FB870B548680C461546FCF72DF80646A0
:1043F0002068FFF7CFFF3146A847062070BD70B593
:1044000008680C461546FFF7C5FF064660685AF077
:1044100051FD01463046A847062070BD70B50868BA
:104420000C461546FFF7B6FF064660685AF0FCFBDF
:1044300001463046A847062070BD70B508680C4696
:104440001546FFF7A7FF064660685AF0EDFB0146E8
:104450003046A847062070BD08B50249FFF74CFE5C
:10446000406808BD608B0C0838B513684468154671
:104470004BBB40F2617399421DD00CD840F25C7383
:10448000994211D040F25D73994216D02A46BDE898
:104490003840FCF777BC41F249239942F6D1606875
:1044A000FFF72EF8286038BD2378002B0CBF0E23B1
:1044B0001E232B60F7E76378F7E704F1080116483D
:1044C000FFF712F8EEE750680028ECD040F2617375
:1044D00099421CD00ED840F25C73994212D040F23F
:1044E0005D739942DFD1FFF7B7FF07C8083484E84E
:1044F00007000AE041F249239942D4D1FFF74AFF6D
:10450000606002E05AF0D6FC20700023D1E75AF038
:10451000D1FC6070F9E700BF608B0C0810B508682B
:104520001446FFF799FFA04700280CBF0E201E205D
:1045300010BDF8B508680C461546FFF78DFF064616
:104540006068FBF781FF0746A068FBF77DFF3946EF
:1045500002463046A8470620F8BD10B50868144644
:10456000FFF77AFFA047BDE810405DF09BBE2DE944
:10457000F04108680C461546FFF76EFF0646606876
:10458000FFF76AFF0746A068FBF75EFF8046E0681A
:104590005AF090FC4246034639463046A84706206A
:1045A000BDE8F08110B508681446FFF755FFA04735
:1045B000062010BD70B508680C461546FFF74CFF85
:1045C00006466068FBF740FF01463046A8470620D4
:1045D00070BD70B508680C461546FFF73DFF0646EE
:1045E0006068FBF731FF01463046A847062070BDE2
:1045F00010B508681446FFF72FFFA047BDE810402C
:10460000FEF78ABFFFF7F4BF70B508680C46154681
:10461000FFF722FF06466068FBF716FF01463046AB
:10462000A847BDE87040FEF777BFFFF7EDBF70B554
:1046300008680C461546FFF70FFF064660685AF0FB
:10464000F3FA01463046A847062070BD08B5024976
:10465000FFF752FD406808BD90840C0870B51668DD
:1046600045681446BEB940F67E66B14207D040F6B2
:104670001876B14208D0BDE87040FCF783BB2868CB
:10468000FFF7A0FA206070BD2B79002B0CBF0E2322
:104690001E232360F7E750680028F4D040F67E62BE
:1046A000914207D040F618729142ECD15AF002FCC8
:1046B000287102E0FFF7CAFF28600023E9E770B520
:1046C000166845681446D6B941F29E16B14210D01C
:1046D00041F2AD26B14207D040F66716B1420CD088
:1046E000BDE87040FCF74EBB2846FFF76BFA206030
:1046F00070BDA8685DF050FDF9E7E868FAE750681A
:104700000028F5D041F29E12914213D041F2AD2221
:10471000914207D040F667129142E9D15AF084FAEB
:10472000E86004E0FFF792FF03C885E80300002378
:104730002360DDE75AF078FAA860F8E770B51668EC
:1047400044681546EEB940F64966B1420CD041F2D4
:104750006916B1420BD040F64866B1420DD12046F1
:10476000FFF730FA286070BD04F10800F8E7207CFC
:1047700000F007005DF010FDF4E7BDE87040FCF7C5
:1047800001BB50680028EED040F6496291420FD03C
:1047900041F2691291420FD040F648629142E2D153
:1047A000FFF754FF03C884E8030000232B60DAE717
:1047B000FFF74CFF0834F5E75AF036FA237C60F334
:1047C00002032374F1E770B508680C461546FFF73D
:1047D0003DFF06466068FFF739FF01463046A847AF
:1047E000062070BDF8B508680C461546FFF72EFF89
:1047F000064660685AF018FA0746A0685AF014FA9C
:10480000394602463046A8470620F8BD2DE9F04F4C
:10481000086885B00C461546FFF718FF0646606825
:104820005AF002FA0746A0685AF0FEF98046E0689E
:104830005AF0FAF9814620695AF0F6F98246606921
:10484000FFF704FF8346A0695AF034FBCDF800A0BF
:10485000CDE901B04B46304642463946A8470620CE
:1048600005B0BDE8F08F2DE9F34708680C46154602
:10487000FFF7ECFE064660685AF0D6F90746A068D6
:104880005AF0D2F98046E0685AF0CEF981462069A4
:10489000FFF7DCFE824660695AF00CFB4B46CDE91F
:1048A00000A0424630463946A847062002B0BDE87F
:1048B000F08770B505465AF0DFFA20B92846BDE802
:1048C0007040FBF7C1BD5AF0AFF9C0004BF0DCFC03
:1048D00000210446284658F0D7FD254606463046B6
:1048E00058F046FE083508B9204670BDFFF7AEFE09
:1048F00003C805E90300F2E72DE9F04313684468B3
:1049000087B01546002B60D140F6F41399424ED083
:1049100019D840F66C03994242D00BD8692937D098
:1049200040F2D673994237D02A4607B0BDE8F0432B
:10493000FCF728BA40F664139942F5D1B4F9100097
:104940005DF02AFC20E040F67E63994219D041F2E6
:10495000A513994222D040F6FA139942E4D16F464A
:1049600004F11306B846193416F8010F5DF014FC73
:10497000A64247F8040BF7D1414606205EF0A6F8A0
:1049800002E02046FFF71EF9286007B0BDE8F0837B
:10499000A0685DF087FCF7E7E068FAE7A07CCFE766
:1049A000E37C002B0CBF0E231E232B60EDE76F462C
:1049B00004F11806B846303456F8040FFEF7ACFD83
:1049C000A64247F8040BF7D1D6E75668002EDCD094
:1049D00040F6F413994262D018D840F66C0399421D
:1049E00042D00AD8692935D040F2D6739942CCD149
:1049F00030465AF019F9E0602AE040F66413994213
:104A0000C3D130465AF010F9208221E040F67E638F
:104A1000994217D041F2A513994220D040F6FA13DB
:104A20009942B2D1304604F114095AF025FA00BB7C
:104A30003046FBF709FD07463B686361BB88A9F870
:104A4000043005E03046FFF701FE03C884E80300A8
:104A50000023AAE730465AF0E7F8A060F8E73046AE
:104A60005AF0E2F8A074F3E730465AF023FAE07403
:104A7000EEE75AF0D9F84BF007FC00210746304624
:104A800058F002FD07F1FF380646304658F070FD39
:104A90000028D1D05AF0C8F808F8010FF5E73046E1
:104AA000FDF79BFC1C3400F1180350F8042B44F86C
:104AB000042B9842F9D1CBE70B4610B5044918688E
:104AC0001446FFF719FB4068A047062010BD00BF41
:104AD0004C160C0808B50249FFF70EFB406808BDEC
:104AE00044790C0808B50249FFF706FB406808BD89
:104AF000A4920C0870B5146845681646ECB940F2EB
:104B00009274A1420BD040F6B164A14211D040F2A0
:104B10007374A14208D0BDE87040FCF733B9284651
:104B2000FFF756F8306070BD05F11C00FFF756F82E
:104B3000F8E7E86A5DF030FBF4E750680028F2D04F
:104B400040F2927291420ED040F6B162914216D07C
:104B500040F273729142E6D1FFF7C4FF0FC81C35D3
:104B600085E80F0008E0FFF7B5FF04460FCC0FC53E
:104B700094E8070085E8070000233360D3E75AF084
:104B800053F8E862F8E738B51368446815464BBB3C
:104B900040F6386399421FD00CD840F66E03994214
:104BA00013D040F6366399421AD02A46BDE8384001
:104BB000FCF7E8B841F2DD2399420BD0B1F5975FDD
:104BC000F3D120695DF0E8FA02E02046FFF706F82D
:104BD000286038BD6069F5E7207E5DF063FBF7E78C
:104BE000607EFAE750680028F3D040F638639942B7
:104BF00023D00BD840F66E03994212D040F63663AC
:104C00009942E6D15AF010F860760FE041F2DD23C8
:104C100099420ED0B1F5975FDBD15AF005F82061CB
:104C200004E0FFF75FFF0FC884E80F0000232B604C
:104C3000CFE759F0F9FF6061F8E759F0F5FF20760A
:104C4000F4E770B5166844681546F6B940F6B166E3
:104C5000B14210D040F6DD66B14207D040F6426660
:104C6000B1420CD0BDE87040FCF78CB82046FEF78E
:104C7000B5FF286070BD20695DF08EFAF9E7207DF0
:104C800000F001005DF00EFBF3E750680028F1D062
:104C900040F6B162914216D040F6DD6291420AD0F0
:104CA00040F642629142E5D159F0BEFF237D60F3A8
:104CB0000003237504E0FFF715FF0FC884E80F0019
:104CC00000232B60D6E759F0AFFF2061F8E770B5FD
:104CD000166844681546D6B940F6E256B1420CD083
:104CE00041F26926B1420BD040F6D836B1420AD122
:104CF0002046FEF773FF286070BD04F11000F8E74E
:104D000004F12000F5E7BDE87040FCF73BB85068BF
:104D10000028F1D040F6E25291420FD041F26922D0
:104D200091420FD040F6D8329142E5D1FFF7DAFE3A
:104D30000FC884E80F0000232B60DDE7FFF7D2FEE9
:104D40001034F5E7FFF7CEFE2034F1E72DE9F0410E
:104D500008680C461546FBF777FB06466068FBF7CC
:104D600073FB0746A068FFF7BDFE8046E068FFF7CB
:104D7000B9FE4246034639463046A847BDE8F041F1
:104D80005DF00ABA38B5136844681546002B5ED149
:104D900040F60113994253D01CD840F273739942E4
:104DA0003CD00CD89E2934D040F2137399423AD0AB
:104DB00074292AD02A46BDE83840FBF7E3BF40F605
:104DC0003C03994232D040F63D039942F2D104F1BE
:104DD000280025E040F68F63994233D0B1F5696F22
:104DE00009D2B1F5146F24D040F68E639942E1D117
:104DF00094F8590028E041F2A51399421ED041F2DF
:104E000003239942D6D1A06C00E02068FEF784FB12
:104E100002E020795DF0C0F9286038BD04F1080097
:104E2000FEF7DCFEF8E704F11800F9E704F13800BA
:104E3000F6E7E16C3C48FEF757FBEDE7206DE9E74C
:104E4000606DE3E794F858005DF02CFAE4E75068F1
:104E50000028E2D040F6011399425BD01ED840F200
:104E6000737399423DD00DD89E2936D040F213730A
:104E700099423DD07429D0D1FBF7E6FA2060002397
:104E80002B60CAE740F63C03994235D040F63D031B
:104E90009942C2D1FFF726FE283425E040F68F6301
:104EA00099423BD0B1F5696F0BD2B1F5146F27D0A1
:104EB00040F68E639942B0D159F0B6FE84F859009D
:104EC000DDE741F2A513994220D041F20323994234
:104ED000A3D1FBF7B9FAA064D1E759F0A5FE207180
:104EE000CDE7FFF7FFFD08340FC884E80F00C6E7E1
:104EF000FFF7F8FD1834F7E7FFF7F4FD3834F3E770
:104F00000949FFF7F9F84368E364B8E759F08CFE04
:104F10002065B4E7FBF798FA6065B0E759F084FEC6
:104F200084F85800ABE700BFEC8A0C0870B508683D
:104F30000C461546FFF7D6FD06466068FFF7D2FD22
:104F400001463046A84700280CBF0E201E2070BD29
:104F5000F8B508680C461546FFF7C4FD06466068BC
:104F6000FFF7C0FD0746A06859F05EFE39460246CD
:104F70003046A84700280CBF0E201E20F8BDF8B50B
:104F800008680C461546FFF7ADFD06466068FFF75A
:104F90005DFB0746A06859F047FE39460246304699
:104FA000A84700280CBF0E201E20F8BDF8B50868E1
:104FB0000C461546FFF796FD06466068FFF792FD22
:104FC0000746A068FFF78EFD394602463046A847DF
:104FD0000620F8BDF8B508680C461546FFF782FDB7
:104FE00006466068FFF77EFD0746A068FFF77AFD7A
:104FF000394602463046A84700280CBF0E201E2026
:10500000F8BDF8B508680C461546FFF76BFD064677
:10501000606859F009FE0746A06859F005FE394658
:1050200002463046A8470620F8BD2DE9F743086838
:105030000C461546FFF756FD06466068FFF752FD21
:105040000746A06859F0F0FD8046E06859F0ECFD95
:105050008146206959F0E8FD4B4600905FFA88F2DE
:1050600030463946A847062003B0BDE8F08310B5A6
:1050700008681446FFF736FDA047BDE810405DF014
:1050800011B970B508680C461546FFF72BFD0646AA
:10509000606859F0C9FD01463046A847062070BD3A
:1050A00010B508681446FFF71DFDA047BDE8104085
:1050B0005DF072B82DE9F74308680C461546FFF716
:1050C00011FD0646606859F0AFFD0746A06859F02B
:1050D000ABFD8046E06859F0A7FD8146206959F094
:1050E000A3FD4B460090424630463946A84706206D
:1050F00003B0BDE8F08370B508680C461546FFF7AD
:10510000F1FC06466068FFF7EDFC01463046A84713
:10511000062070BD70B508680C461546FBF794F97B
:1051200006466068FFF7DEFC01463046A8470620C9
:1051300070BD2DE9F04F086887B00C46154659F050
:1051400073FD0590606859F06FFD0746A06859F03F
:105150006BFD8046E06859F067FD8146206959F093
:1051600063FD8246606959F05FFD8346A06959F08E
:10517000A1FE0646E069FFF7B5FCCDE900ABCDE93D
:1051800002604B4605981FFA88F23946A847062068
:1051900007B0BDE8F08F2DE9F04F086885B00C46E8
:1051A0001646FFF79FFC0746606859F03DFD8046B4
:1051B000A06859F039FD8146E06859F035FD824616
:1051C000206959F031FD0546606959F02DFD83468F
:1051D000A069FFF73BFAADB202901FFA8BF0019085
:1051E0000095384653464A464146B047062005B02A
:1051F000BDE8F08F70B5044659F03EFE20B9204658
:10520000BDE87040FBF720B959F00EFD00014BF0EE
:105210003BF800210546204658F036F92C46064654
:10522000304658F0A5F9103408B9284670BDFFF78C
:1052300059FC0FC804E90F00F2E7F8B508680C46FE
:105240001546FFF7D7FF06466068FFF74BFC074699
:10525000A068FFF747FC394602463046A847BDE83C
:10526000F8405CF099BF000008B50249FEF744FF22
:10527000406808BD30980C08136870B5446816463D
:10528000002B4AD140F6326399423AD017D840F603
:10529000490399422ED00CD840F29273994224D0FF
:1052A00040F29973994233D03246BDE87040FBF723
:1052B00069BD40F631639942F6D1E06A0DE041F2F2
:1052C0008F1399421BD00BD840F6356399421AD000
:1052D00040F6B1639942E7D1E0695CF05DFF07E019
:1052E000B1F5965FE0D1606AF7E72046FEF770FC03
:1052F000306070BD04F12000FEF776FCF8E7A06A8C
:10530000EBE7206BE9E794F834005CF0CBFFEFE7C4
:1053100094F8350000F00100F7E750680028E8D065
:1053200040F6326399424ED01DD840F64903994267
:105330003DD010D840F2927399422CD040F299732C
:105340009942D6D159F070FC94F8353060F30003DF
:1053500084F8353028E040F631639942C9D159F0DC
:1053600063FCE06220E041F28F13994227D00BD812
:1053700040F6356399422AD040F6B1639942B8D1DC
:1053800059F052FCE0610FE0B1F5965FB1D159F0F0
:105390004BFC606208E0FFF79DFB05460FCD0FC494
:1053A00095E8070084E8070000233360A1E7FFF7D2
:1053B0005BFF0288837884F822302284F4E759F076
:1053C00033FCA062F0E759F02FFC2063ECE759F0C2
:1053D0002BFC84F83400E7E7136870B54468164680
:1053E000B3BB40F6B16399421FD010D840F64903D1
:1053F00099421ED040F6356399421FD040F2927315
:1054000099420DD03246BDE87040FBF7BBBC41F27B
:105410006913994217D0B1F5965FF3D1606A05E040
:105420002046FEF7D5FB306070BDE0695CF0B4FE4D
:10543000F9E704F12000FEF7D7FBF4E794F8280021
:105440005CF030FFEFE794F8290000F01F00EDE773
:1054500050680028E8D040F6B163994223D017D8AD
:1054600040F64903994222D040F63563994226D04E
:1054700040F292739942D7D1FFF72CFB05460FCD2E
:105480000FC495E8070084E8070000233360CBE7EA
:1054900041F26913994217D0B1F5965FC4D159F022
:1054A000C3FB6062F1E759F0BFFBE061EDE7FFF796
:1054B000DBFE0288837884F822302284E5E759F005
:1054C000B3FB84F82800E0E759F0AEFB94F82930EC
:1054D00060F3040384F82930D7E770B5166845688F
:1054E0001446E6B940F62466B1420BD040F6826617
:1054F000B1420CD040F64906B1420CD0BDE8704034
:10550000FBF740BC28685CF047FE206070BD28684F
:10551000FEF702F8F9E72846FEF766FBF5E7506864
:105520000028F3D040F6246291420ED040F6826209
:10553000914210D040F649029142E7D1FFF794FE24
:1055400002888378AB702A8002E059F06DFB2860F6
:1055500000232360DAE7FAF777FFF8E7136870B5FE
:1055600044681646002B55D140F6356399424ED01B
:105570001DD840F64903994237D00CD840F29273B7
:1055800099422DD040F61503994237D03246BDE8F6
:105590007040FBF7F7BB40F6671399422CD040F6FA
:1055A00007439942F2D1A06BFDF7B6FF1BE041F231
:1055B0009E1399421ED00CD840F6B163994222D076
:1055C00040F63B739942E1D194F83D0000F00100B0
:1055D0001AE0B1F5965FD9D1206A5CF0DDFD02E0FA
:1055E0002046FEF7F5FA306070BD04F11C00FEF7AE
:1055F000FBFAF8E7606AF0E7A06AEEE704F12C0036
:10560000FEF7E0FAEFE7A08E5CF04CFEEBE794F8D3
:105610003C00F9E750680028E6D040F6356399422F
:105620005CD01FD840F64903994244D00ED840F2CE
:105630009273994233D040F615039942D4D1FFF7C3
:1056400005F803C82C3484E8030031E040F6671302
:1056500099423BD040F607439942C5D1FAF7F4FE90
:10566000A06325E041F29E1399422BD010D840F65A
:10567000B16399422ED040F63B739942B4D159F0B0
